:100000000C9472030C949A030C949A030C949A0324
:100010000C949A030C949A030C949A030C949A03EC
:100020000C949A030C949A030C94B4070C94230830
:100030000C949A030C949A030C949A030C949A03CC
:100040000C949A030C949A030C949A030C949A03BC
:100050000C949A030C949A030C949A030C94550AEA
:100060000C949A030C949A030C949A030C949A039C
:100070000C949A030C949A030C949A030C949A038C
:100080000C949A030C949A030C949A030C949A037C
:100090000C949A030C949A030C949A030C949A036C
:1000A0000C949A030C949A030C949A030000000099
:1000B000003E5B4F5B3E3E6B4F6B3E1C3E7C3E1CEE
:1000C000183C7E3C181C577D571C1C5E7F5E1C0034
:1000D000183C1800FFE7C3E7FF0018241800FFE7EB
:1000E000DBE7FF30483A060E2629792926407F05AE
:1000F0000507407F05253F5A3CE73C5A7F3E1C1CC4
:1001000008081C1C3E7F14227F22145F5F005F5F83
:1001100006097F017F006689956A6060606060946F
:10012000A2FFA29408047E040810207E2010080874
:100130002A1C08081C2A08081E101010100C1E0C7F
:100140001E0C30383E3830060E3E0E060000000011
:100150000000005F00000007000700147F147F14F8
:10016000242A7F2A1223130864623649562050003D
:1001700008070300001C2241000041221C002A1C29
:100180007F1C2A08083E0808008070300008080814
:100190000808000060600020100804023E51494534
:1001A0003E00427F400072494949462141494D3352
:1001B0001814127F1027454545393C4A49493141B9
:1001C000211109073649494936464949291E000087
:1001D00014000000403400000008142241141414DC
:1001E0001414004122140802015909063E415D59C8
:1001F0004E7C1211127C7F494949363E41414122D1
:100200007F4141413E7F494949417F090909013EFA
:10021000414151737F0808087F00417F4100204021
:10022000413F017F081422417F404040407F021C33
:10023000027F7F0408107F3E4141413E7F0909094A
:10024000063E4151215E7F09192946264949493216
:1002500003017F01033F4040403F1F2040201F3FDC
:100260004038403F63140814630304780403615961
:10027000494D43007F4141410204081020004141A3
:10028000417F04020102044040404040000307084F
:100290000020545478407F2844443838444444284B
:1002A000384444287F385454541800087E090218F2
:1002B000A4A49C787F0804047800447D400020407A
:1002C000403D007F1028440000417F40007C0478BE
:1002D00004787C080404783844444438FC18242406
:1002E0001818242418FC7C08040408485454542486
:1002F00004043F44243C4040207C1C2040201C3C03
:100300004030403C44281028444C9090907C4464F9
:10031000544C44000836410000007700000041368C
:10032000080002010204023C2623263C1EA1A16112
:10033000123A4040207A3854545559215555794144
:100340002154547841215554784020545579400C1B
:100350001E527212395555555939545454593955FC
:100360005454580000457C410002457D420001453F
:100370007C40F0292429F0F0282528F07C545545AC
:10038000002054547C547C0A097F4932494949323F
:100390003248484832324A4848303A4141217A3A54
:1003A00042402078009DA0A07D39444444393D401E
:1003B00040403D3C24FF2424487E4943662B2FFCCB
:1003C0002F2BFF0929F620C0887E09032054547979
:1003D000410000447D413048484A32384040227A4A
:1003E000007A0A0A727D0D19317D2629292F2826C7
:1003F0002929292630484D402038080808080808CF
:100400000808382F10C8ACBA2F102834FA00007B27
:10041000000008142A142222142A1408950022002D
:1004200095AA005500AAAA55AA55AA000000FF00E7
:10043000101010FF00141414FF001010FF00FF1024
:1004400010F010F0141414FC001414F700FF000056
:10045000FF00FF1414F404FC141417101F10101FD5
:10046000101F1414141F00101010F0000000001FC3
:10047000101010101F10101010F010000000FF10CE
:100480001010101010101010FF10000000FF1400CA
:1004900000FF00FF00001F10170000FC04F41414FC
:1004A0001710171414F404F40000FF00F7141414C8
:1004B00014141414F700F7141414171410101F1048
:1004C0001F141414F4141010F010F000001F101F6B
:1004D0000000001F14000000FC140000F010F010D9
:1004E00010FF10FF141414FF141010101F00000050
:1004F00000F010FFFFFFFFFFF0F0F0F0F0FFFFFF54
:100500000000000000FFFF0F0F0F0F0F38444438AA
:10051000447C2A2A3E147E02020606027E027E02E5
:1005200063554941633844443C04407E201E200604
:10053000027E020299A5E7A5991C2A492A1C4C7241
:1005400001724C304A4D4D303048784830BC625AC8
:10055000463D3E494949007E0101017E2A2A2A2A58
:100560002A44445F444440514A444040444A514034
:100570000000FF0103E080FF000008086B6B0836F5
:1005800012362436060F090F060000181800000066
:100590001010003040FF0101001F01011E00191D55
:1005A0001712003C3C3C3C0000000000F0F89C8E20
:1005B0008783878E9CF8F00000FEFF03030303038C
:1005C000070EFCF80000FEFF0303030303070EFC05
:1005D000F80000FFFF00000000000000FFFF000027
:1005E000FEFF8383838383C7EE7C380000F8FC0E14
:1005F00007030303070EFCF800003F7FE0C0808084
:10060000C0E07F3FFFFF01010101010101FFFF0089
:1006100000FFFF0C0C0C0C1C3E77E3C100007FFFB9
:10062000C0C0C0C0C0E0703F1F00001F3F70E0C0EE
:10063000C0C0E0703F1F00007FFFC1C1C1C1C1E366
:10064000773E1C00001F3F70E0C0C0C0E0703F1F3D
:10065000000000000001FFFF01000000D5F08D1434
:10066000A1C881CFD9F1AF200018001900080B00F4
:100670000202020000090400000102020000052439
:1006800000100105240101010424020605240600CE
:10069000010705810310004009040100020A00005F
:1006A0000007050202400000070583024000000425
:1006B00003090412010002EF0201404123368000C9
:1006C000010102030141726475696E6F204C4C4355
:1006D0000041726475696E6F204C656F6E61726463
:1006E0006F00D20A11241FBECFEFDAE0DEBFCDBF0C
:1006F00011E0A0E0B1E0E4E1F9E202C005900D9262
:10070000A236B107D9F726E0A2E6B1E001C01D92FA
:10071000A033B207E1F713E0C2E7D3E004C02197AA
:10072000FE010E94A311C137D107C9F70E94EF0A49
:100730000C9488140C940000ECEDF1E0A0E0B8E01B
:1007400000800EBC8111012C1197A0FDFDCF0192FC
:10075000B9F70DB40895FC018091DB01882311F1F4
:100760003FB7F89482E08093E9002091F200822F55
:1007700090E01816190614F481E090E0882339F00F
:10078000289844E64093DA014091F1004083222307
:1007900039F02091F200211103C02BE62093E800EC
:1007A0003FBF08958FEF9FEF08952FB7F89483E030
:1007B0008093E9009091E800892F807295FF04C032
:1007C0009091F20080E4891B2FBF08958091D2019F
:1007D00081110DC082E08093CE0184E08093CF012F
:1007E0001092D1011092D00181E08093D2018EEC61
:1007F00091E00895CF93DF931F92CDB7DEB7698361
:10080000DC01ED91FC910280F381E02D41E050E0AC
:10081000BE016F5F7F4F09950F90DF91CF910895D3
:1008200083E08093E9008091F200882319F08AE345
:100830008093E80008950E94D50390E00895CF9337
:10084000DF931F92CDB7DEB7FC018485958597FDB8
:1008500008C02FEF3FEF358724870F90DF91CF91AE
:100860000895CE0101960E94AB03019719F4898186
:1008700090E0F3CF8FEF9FEFF0CF0F931F93CF93C5
:10088000DF931F92CDB7DEB78C01FC01848595857F
:1008900097FF0BC0CE0101960E94AB03019771F444
:1008A000898190E0F80195878487F8018485958592
:1008B0000F90DF91CF911F910F9108958FEF9FEFD0
:1008C000F1CFFC018485958597FD0BC09FB7F89407
:1008D00082E08093E9008091F2009FBF90E0019652
:1008E00008959FB7F89482E08093E9008091F20028
:1008F0009FBF90E008954091C8015091C901209197
:10090000C6013091C70142175307B4F49091E80033
:100910009570E1F39091E80092FD19C08093F10089
:100920008091C8019091C90101968F739927892BF5
:1009300019F48EEF8093E8008091C8019091C9016D
:1009400001969093C9018093C80181E0089580E0E9
:100950000895DF92EF92FF920F931F93CF93DF934F
:10096000D82E8A01EB017B01E40EF51ECE15DF05C2
:1009700059F0D7FE12C0FE0184910E947B0421969B
:100980008111F4CF0FEF1FEFC801DF91CF911F91BD
:100990000F91FF90EF90DF9008958881EECF0F9335
:1009A0001F93CF93DF931F92CDB7DEB782E0898389
:1009B00042E450E06DE676E080E80E94A9040E94DF
:1009C000E603DC0112960D911C910115110589F0C9
:1009D000D801ED91FC910280F381E02DBE016F5FA3
:1009E0007F4FC801099597FD04C0F8010085118566
:1009F000ECCF89810F90DF91CF911F910F910895D6
:100A0000615030F02091F100FC0120830196F8CF75
:100A1000289884E68093DA010895AF92BF92CF922E
:100A2000DF92EF92FF920F931F93CF93DF936C01AE
:100A30007B018B01040F151FEB015E01AE18BF088F
:100A4000C017D10759F06991D601ED91FC91019041
:100A5000F081E02DC6010995892B79F7C501DF9159
:100A6000CF911F910F91FF90EF90DF90CF90BF90AB
:100A7000AF9008953FB7F89480916301909164011D
:100A8000A0916501B091660126B5A89B05C02F3FD6
:100A900019F00196A11DB11D3FBFBA2FA92F982FA4
:100AA0008827BC01CD01620F711D811D911D42E09F
:100AB000660F771F881F991F4A95D1F708958F9267
:100AC0009F92AF92BF92CF92DF92EF92FF926B0113
:100AD0007C010E943A054B015C01C114D104E10480
:100AE000F104B9F00E943A05681979098A099B094D
:100AF000683E73408105910580F321E0C21AD10858
:100B0000E108F10888EE880E83E0981EA11CB11C54
:100B1000E4CFFF90EF90DF90CF90BF90AF909F9089
:100B20008F9008958F929F92AF92BF92CF92DF9253
:100B3000EF92FF920F931F93CF93DF936C017B0192
:100B40008A0180910D01882309F45CC08091DB014A
:100B5000882309F457C08091CD0180FF05C08091A2
:100B6000E00082608093E000E801B12C8AEFA82EBB
:100B700093E0892E2AE3922E209711F4BB20D9F11D
:100B80000E94D50381110AC0AA94AA20D9F161E07C
:100B900070E080E090E00E945F05EECF8C171D06AC
:100BA00011F00CF08C2F9FB7F8948092E9002091FF
:100BB000E80025FD02C09FBFDFCF282F30E0C21B19
:100BC000D30BF701815020F041914093F100FACF0F
:100BD000E20EF31EBB2021F09092E800B12CEBCF87
:100BE0008091E80085FDE7CF9092E800BB24B394A4
:100BF000209709F3F3CF5D9884E68093CC0110161B
:100C000011063CF081E090E0F6019383828310E0CE
:100C100000E0C801DF91CF911F910F91FF90EF90FD
:100C2000DF90CF90BF90AF909F908F9008952D9AB6
:100C30000895BC0190E080E00C945F058FB1809531
:100C4000807F669B88601C9B8460089520E191E012
:100C500061FD94E060FD990F62FD9295687F269F8B
:100C6000D0011124A80FA452BE4F8C9140FF03C0A5
:100C7000892B8C93089590958923FBCF80E0ECED30
:100C8000F1E081118FEF002481938193819381930F
:100C90000394D1F71092700110926F0110927201BB
:100CA0001092710108952F923F924F925F926F922E
:100CB0007F928F929F92AF92BF92CF92DF92EF92EC
:100CC000FF920F931F93CF93DF9300D000D01F921A
:100CD000CDB7DEB76D30C9F04090010160906F0173
:100CE00070907001042D10E06A3049F51092720185
:100CF0001092710183E0000F111F8A95E1F7600ED9
:100D0000711E7092700160926F0181E090E00F900F
:100D10000F900F900F900F90DF91CF911F910F9137
:100D2000FF90EF90DF90CF90BF90AF909F908F900B
:100D30007F906F905F904F903F902F9008952090FC
:100D4000710130907201E5E06E9FC001112484555D
:100D50009F4F9D838C836101512CF5E05F1651F10B
:100D60008C819D810196EC81FD81F491F9839D83B5
:100D70008C83430128E02A83898181708B837601EB
:100D80008E2D8C198415E0F4B12CA12CA414A0F4A0
:100D900090E8E916F10450F4B4016A0D7B1D60344B
:100DA000710520F44B81C7010E942606EFEFAE1AB1
:100DB000BE0AECCF1982DDCFFFEFEF1AFF0AE0CFBA
:100DC0002981269529838A8181508A83800E911EEC
:100DD0008111D2CF5394C00ED11E96E05912BDCFCF
:100DE000C101459C800D911D112490937201809347
:100DF00071018BCF0F931F93CF93DF938C01D0E0C2
:100E0000C0E0F801EC0FFD1F6491662341F08CE215
:100E100096E00E945306892B11F02196F2CFCE0165
:100E2000DF91CF911F910F910895909173019823B5
:100E300029F490917401982381E009F480E00895E9
:100E400080E00C949C03089590E080E008958F92D8
:100E50009F92AF92BF920F931F93CF93DF93CDB723
:100E6000DEB7A1970FB6F894DEBF0FBECDBF19A2B3
:100E7000423008F44AE08E010F5D1F4F842E912C02
:100E8000B12CA12CA50194010E944A11E62FB901B1
:100E9000CA01EA3044F5E05DD801EE938D01232BC1
:100EA000242B252B79F790E080E0109769F0FD0165
:100EB00001900020E9F73197AF014A1B5B0BBD01A0
:100EC0008CE296E00E940D05A1960FB6F894DEBF65
:100ED0000FBECDBFDF91CF911F910F91BF90AF900B
:100EE0009F908F900895E95CD7CFFC01019000207E
:100EF000E9F73197AF01481B590BBC018CE296E032
:100F00000C940D05CF92DF92EF92FF92CF93DF9377
:100F10006C01990FEE08FF08F7FE19C06DE28CE234
:100F200096E00E945306EC0166277727CB016C19E7
:100F30007D098E099F094AE00E9427078C0F9D1F9B
:100F4000DF91CF91FF90EF90DF90CF9008954AE02E
:100F5000C701B601DF91CF91FF90EF90DF90CF9066
:100F60000C9427070C9402111F920F920FB60F9248
:100F700011248F939F938091E1009091E100937FE2
:100F80009093E10083FF0FC01092E90091E09093ED
:100F9000EB001092EC0092E39093ED001092DB01D5
:100FA00098E09093F00082FF22C093E09093E900D4
:100FB0009091F200992319F09AE39093E8009091B0
:100FC000CC01992341F09091CC0191509093CC01A8
:100FD000911101C05D9A9091DA01992341F09091AD
:100FE000DA0191509093DA01911101C0289A84FF9F
:100FF00018C08091E2008E7E81608093E200809133
:10100000E1008F7E8093E1008091CD018E7E806132
:101010008093CD019F918F910F900FBE0F901F90E5
:10102000189580FFF7CF8091E2008E7E80618093DB
:10103000E2008091E1008E7E8093E1008091CD01FD
:101040008E7E8160E5CF1F920F920FB60F92112412
:10105000CF92DF92EF92FF920F931F932F933F93C4
:101060004F935F936F937F938F939F93AF93BF93B0
:10107000EF93FF93CF93DF93CDB7DEB76C97DEBFCF
:10108000CDBF1092E9008091E80083FF25C068E0A1
:10109000CE0145960E94000582EF8093E8008D897D
:1010A00087FF39C09091E80090FFFCCF982F907691
:1010B00009F034C19E894F89588D2F89F88C911180
:1010C00031C0803861F58091CB018093F10010929E
:1010D000F1008EEF8093E8006C960FB6F894DEBFB7
:1010E0000FBECDBFDF91CF91FF91EF91BF91AF9137
:1010F0009F918F917F916F915F914F913F912F9130
:101100001F910F91FF90EF90DF90CF900F900FBE47
:101110000F901F9018959EEF9093E800C7CF109204
:10112000F100D5CF913059F48111D3CF4130510521
:1011300081F68091CB018D7F8093CB01CACF933014
:1011400049F48111C6CF4130510519F68091CB0188
:101150008260F2CF953041F48091E80080FFFCCFAF
:1011600020682093E300B5CF963009F0A9C00B8D1D
:101170001C8D22E01092E9001092C9011092C80162
:10118000F2122EC01092C7011092C6010E94CF0425
:101190001F8299E09983FA8291E09E8390EA988772
:1011A0009AEF99872091C8013091C901275F3F4F7D
:1011B0003C832B838D831092E9001092C901109219
:1011C000C8011093C7010093C60149E050E0BE0179
:1011D0006F5F7F4F80E00E94A9040E94CF0479CF07
:1011E0001093C7010093C6010E94E603DC0112962A
:1011F0000D911C910115110509F451C1D801ED9112
:10120000FC910480F581E02DBE016B5E7F4FC8012B
:101210000995009709F03EC1F80100851185EACFD4
:10122000F3E0FF120EC08F89882309F440C082309A
:1012300061F440E860E181ED96E00E949F0A81112F
:1012400048CF81E28093EB0047CF813029F440E81A
:101250006BE085EC96E0F1CF833099F70E94E603CE
:10126000DC011296ED90FC908E010F5F1F4F68011C
:10127000E114F10479F0D701ED91FC910680F7813A
:10128000E02DB801C7010995080F111DF701E08491
:10129000F184EECFD8011C92F60101900020E9F70D
:1012A0003197BF016C197D0940E0C601C6CF6FEAD6
:1012B00076E0FB01449150E080E80E94A90409CF48
:1012C000973009F4BECF983021F481E08093F1008B
:1012D00000CF993009F0FDCE837009F0B2CFE6E17E
:1012E000F1E081E031E096E32191222371F08093D7
:1012F000E9003093EB00DF0111972C912093EC0073
:101300009093ED008F5F873079F78EE78093EA0046
:101310001092EA008F898093DB01DBCE8B8D9C8D50
:101320001092E9001092C9011092C8019093C70170
:101330008093C601898D811192C08E899D89913AD1
:1013400049F4813209F07DCF47E050E066E071E07A
:1013500080E0B3CF913209F074CF833269F48F8982
:10136000988DB0E0A0E08093020190930301A093D8
:101370000401B0930501ADCE803269F48091E8009C
:1013800082FFFCCF67E086E091E00E9400058BEFD2
:101390008093E8009ECE823209F09BCE8F898093A5
:1013A0000D01EEEFFFE7859194918B3F9C4D51F13C
:1013B000E0E0F8E08091060190910701A09108011A
:1013C000B0910901803B9440A105B105F1F48091F1
:1013D0000D0180FD1AC0EE3F8AE0F80789F587E726
:1013E00097E791838083809160008093CA0188E1B0
:1013F0009BE00FB6F894A895809360000FBE909381
:10140000600067CEEEEFFAE0D5CF8081918187371B
:10141000974709F05ECEA89580916000886180931F
:1014200060008091CA0180936000EE3F2AE0F207DD
:1014300089F08091FE0A9091FF0A9183808349CEC2
:10144000808191818737980751F29093FF0A8093AA
:10145000FE0AC5CF1092FF0A1092FE0A3ACE0E94F1
:10146000E603DC0112960D911C910115110509F49A
:10147000E8CED801ED91FC910190F081E02DBE0104
:101480006B5E7F4FC8010995811123CEF80100855D
:101490001185EBCF181619060CF41BCED2CEF1E055
:1014A000FF12BECE63EB76E004CF1F920F920FB611
:1014B0000F9211242F933F938F939F93AF93BF93DA
:1014C0008091670190916801A0916901B0916A01D2
:1014D0003091620123E0230F2D3758F50196A11DAD
:1014E000B11D209362018093670190936801A093DE
:1014F0006901B0936A018091630190916401A091A8
:101500006501B09166010196A11DB11D8093630133
:1015100090936401A0936501B0936601BF91AF9170
:101520009F918F913F912F910F900FBE0F901F9021
:10153000189526E8230F0296A11DB11DD2CFEF9278
:10154000FF920F931F93CF93DF93F82E192FE62E60
:10155000042F81E0860F880F0E947B0483E00E94A5
:101560007B04CF2DD12FEC0EFD2EF11CCE15DF0507
:10157000B9F007FF13C0FE0184910E947B04182F6D
:1015800080E00E947B04812321968111EFCFDF91BF
:10159000CF911F910F91FF90EF9008958881EDCF2B
:1015A00081E0F5CFECEDF5E01382128288EE93E056
:1015B000A0E0B0E084839583A683B78380E291E0C6
:1015C000918380838FEF9FEF95878487ECE2F6E02D
:1015D0001382128282E391E091838083089578944C
:1015E00084B5826084BD84B5816084BD85B5826028
:1015F00085BD85B5816085BD80916E0081608093D9
:101600006E00109281008091810082608093810041
:101610008091810081608093810080918000816051
:1016200080938000809191008260809391008091EE
:1016300091008160809391008091900081608093FF
:1016400090008091C10084608093C1008091C100AE
:1016500082608093C1008091C10081608093C1004D
:101660008091C30081608093C3008091C00082603C
:101670008093C0008091C20081608093C2008091FD
:101680007A00846080937A0080917A0082608093EF
:101690007A0080917A00816080937A0080917A004C
:1016A000806880937A001092DB011092CB01109237
:1016B000CD018091D70081608093D70080EA80932C
:1016C000D80089B5806189BD89B5826089BD09B4BA
:1016D00000FEFDCF61E070E080E090E00E945F05D9
:1016E0008091D8008F7C80618093D8008091E00049
:1016F000807F8093E0008091E1008E7E8093E10006
:101700008DE08093E200559A209A81EC80937C00D2
:1017100085B1806F85B984B1877E84B984B1876EC5
:1017200084B95E9A5F988AB1806D8AB9769A6E980C
:1017300081B3806F81BB899880B38D7080BB80E559
:101740008CBD81E08DBD85E090E00E9419065F9A16
:1017500085E090E00E9419065E985C98ECE5F6E062
:1017600084918EBD00000DB407FEFDCF319606E0DA
:10177000E936F007A9F75C9A81E8809364008091CC
:1017800065008160809365000E9420070E941E060C
:1017900087FF15C05C9885EA8EBD00000DB407FE7A
:1017A000FDCF5C9A2E982F982D98809164008062CE
:1017B0008093640081E083BF889513BEFCCF0E94B4
:1017C0001E0682FF48C02D980E941E068478843829
:1017D000E1F40E94170688EC90E00E9419062F9809
:1017E00082E090E00E9402118F3F29F06FEF82E0CB
:1017F00090E00E940A1184EF91E00E9419062F9A4E
:101800000E941E0684788438D9F30E941E068471D3
:101810008431E1F40E94170688EC90E00E941906DA
:101820002E9882E090E00E940211882329F060E067
:1018300082E090E00E940A1184EF91E00E94190674
:101840002E9A0E941E0684718431D9F388EC90E0B0
:101850000E941906B4CF0E94170682E090E00E9411
:10186000B207882309F48AC03E9A3F9A81E090E04B
:101870000E94B207182F1470712E81FF10C0111131
:101880002E98C1EFDFEF08E010E078E5672E0E94A8
:101890001E0686FF76C02E9A2F9A0E94170682E3B4
:1018A00090E00E9419060E941E068111F8CF0E9446
:1018B0003E0680E180930001809164008E7F8093DA
:1018C000640080917A00806480937A0080917A002D
:1018D00086FDFCCFC0917800D09179000E943A0536
:1018E000AB01BC01CE01B0E0A0E0DC019927882764
:1018F0008C019D01040F151F261F371FC901B80158
:1019000020916400216020936400611571058105B8
:10191000910511F00E94F91085E090E09093C301C9
:101920008093C2011092C5011092C401C9E0CC2E6F
:10193000D12CE12CF12CD3E02D2E312C412C512C2B
:1019400014E0612E712CCAE0D0E02FB7F89480919A
:10195000670190916801A0916901B0916A012FBF60
:1019600020916D01222309F4CFC010926D0180E017
:1019700090E0892B51F30E940000E5CF3E983F98FC
:1019800075CF772029F0C430D10511F42E9A2F9805
:1019900081E00E949C039E01D7FF04C022273327C9
:1019A0002C1B3D0B27703327CE01D7FD079663E034
:1019B000959587956A95E1F7D7FF05C00197A8012E
:1019C000421B530B9A01BC017695762F66277795BB
:1019D0006795F12CE12C2801421A530A8E3F5FEFE4
:1019E000950709F441C06E9C50016F9CB00C112406
:1019F000DB01A452BE4F50E040E0F501E455FA4F40
:101A00005F01FB01E45AFD4F4F018F3F980781F0C2
:101A1000F501E40FF51FE491022E01C0EE0F0A94C8
:101A2000EAF75496FC915497EF2B5496EC93549705
:101A30002115310599F0F501E40FF51FE4916401DA
:101A4000C40ED51EF0E01F01042C02C0359427946B
:101A50000A94E2F7F60134882328248A4F5F5F4F07
:101A600011964835510589F6019660587F4FEA94E2
:101A7000EF2809F045C00E9420078FE090E00E9407
:101A800019062196C931D10509F001CF772011F04F
:101A90002F9A2D9880E991E00E9419060E9417065E
:101AA00081E090E00E94B20780FFF9CE8AE090E0EA
:101AB0000E94B2079FEF980F9E3F08F0F0CE22E3FE
:101AC00030E0309372012093710128E330E03093CD
:101AD000700120936F01CBE0D0E0682F8CE296E09C
:101AE0000E945306CE010E94B2072196C131D10552
:101AF000A1F70E94200788EE93E00E941906CFCE3E
:101B0000EE24E394F12C6ACF20916E01182F121B62
:101B1000212F30910001131748F42F5F231708F08D
:101B200026CF81E083BF889513BE21CFBB24B39419
:101B3000B0926D0180936E0180916B0190916C0168
:101B4000019690936C0180936B0180917401809356
:101B500073010E941E06809374018091C4019091CC
:101B6000C5018230910509F4CEC044F40097B1F16B
:101B7000019709F49BC00E942007F9CE833091059C
:101B800009F4D8C184309105B1F722E02093010116
:101B900020E330E030937201209371019093700143
:101BA00080936F018091A7019091A80125E0AC017D
:101BB000249FC001259F900D11240E94820765E299
:101BC0008CE296E00E94530688E00E941507882365
:101BD00091F21092C5011092C401CDCF0E943E0631
:101BE00006E010E0109372010093710110927001F1
:101BF00010926F0184E0809301018AE391E00E94DA
:101C00007507B092010186E290E090937201809393
:101C1000710180E390E09093700180936F01809157
:101C2000C2019091C3010E94820780E491E00E946A
:101C30007507109372010093710188E390E090930F
:101C4000700180936F0186E491E00E94750780E83F
:101C50000E941507882371F08091C2019091C30101
:101C60008A3091050CF087CF01969093C301809341
:101C7000C20181CF80E10E941507882351F0809135
:101C8000C2019091C301823091050CF474CF019789
:101C9000ECCF88E00E941507882309F46CCF81E01F
:101CA00090E09093C5018093C40165CF0E943E06E9
:101CB00045E150E06FE570E08DEA91E00E94A911E6
:101CC0001092C101709272016092710122E230E0C3
:101CD0003093700120936F018DEA91E00E947507A7
:101CE0001092AC011092AB011092AA011092A901BE
:101CF0001092A8011092A70142E050E05093C50154
:101D00004093C40138CF10E000E0B8E1AB2EB12C15
:101D100040E0B501C8010E9426065FEFA51AB50A8A
:101D200080E2A816B104A1F70F5F1F4F003811051C
:101D300061F78091A9019091AA0144970CF0F1C03C
:101D40000E94AA10A70196010E9418117093A60183
:101D50006093A5010E94AA10A70196010E94181184
:101D60007093A4016093A3010E94AA10A2019101A3
:101D70000E9418114B01CB012091A5013091A601C1
:101D80004091A3015091A401892B09F0A2C0E091D8
:101D9000A901F091AA01EE0FFF1FE558FE4FC901FE
:101DA000840F951FBE010E947B11918380838091D7
:101DB000A4018F938091A3018F93F401EE5EFE4FF7
:101DC0002081822F022E000C990B9F932F938091DC
:101DD000A6018F938091A5018F93E9E5F1E0FF9330
:101DE000EF9385E791E09F938F930E94B01120912C
:101DF000A9013091AA0146E0429FC001439F900D86
:101E000011240496909372018093710128E130E0CF
:101E10003093700120936F018BE696E00E94FA06E2
:101E20004DB75EB7465F5F4F0FB6F8945EBF0FBE0B
:101E30004DBF10927A0182E08093010180E290E030
:101E400090937201809371017092700160926F01A2
:101E500085E791E00E94750781E080930101809100
:101E6000A9019091AA012091C2013091C30182176A
:101E7000930744F1821B930B26E0289F8001299F42
:101E8000100D11240C5F1F4F10937201009371010C
:101E9000ECE2F0E0F0937001E0936F0189E696E0E8
:101EA0000E94FA06109372010093710106E310E09C
:101EB0001093700100936F018091AB019091AC0180
:101EC0000E94820723E030E03093C5012093C401D3
:101ED00052CE6130710589F4E091A901F091AA0117
:101EE000EE0FFF1FE558FE4FC901841B950B97FFAE
:101EF00059CF91958195910955CF6230710509F0BF
:101F000056CFE091A901F091AA01EE0FFF1FE5580D
:101F1000FE4F429FC001439F900D529F900D112490
:101F200041CF46E050E060E270E085E791E00E943A
:101F3000A9117FCF0091A9011091AA01A090C2011F
:101F4000B090C3010A151B0554F080E80E941507E4
:101F5000811167C080E10E94150781116BC088E084
:101F60000E941507882309F406CE0A151B056CF19B
:101F70000A191B09F801EE0FFF1FE558FE4F2081DB
:101F800031818091AB019091AC01F801E355FE4F96
:101F90002817390709F08CC08FE680838091A7014C
:101FA0009091A80101969093A8018093A701709247
:101FB000720160927101E2E2F0E0F0937001E0934F
:101FC0006F018DEA91E00E94750710E000E08CE25D
:101FD000A82EB12C40E0B501C8010E942606FFEFF3
:101FE000AF1ABF0A20E4A216B104A1F70F5F1F4F7A
:101FF0000038110561F78091A9019091AA0101961D
:102000009093AA018093A9012091C2013091C3014C
:102010002C5E3F4F821793070CF44DC084E090E094
:1020200040CE8091AB019091AC0101969093AC01B0
:102030008093AB0180E10E941507882349F08091CD
:10204000AB019091AC0101979093AC018093AB01EF
:102050008091AB019091AC010A9724F01092AC01F1
:102060001092AB018091AB019091AC0197FF06C03B
:1020700049E050E05093AC014093AB010A191B09B1
:1020800026E0209FC001219F900D1124049690937B
:1020900072018093710186E390E0909370018093C8
:1020A0006F018091AB019091AC010E94820763CDDA
:1020B00088E780837CCF82E090E0F3CD8F929F927F
:1020C000AF92BF92CF92DF92EF92FF92CF93DF93C6
:1020D000EC01688179818A819B8161157105810597
:1020E000910521F464E279ED8BE597E02DE133EF82
:1020F00041E050E00E94181149015A019B01AC01D6
:10210000A7EAB1E40E9437116B017C01ACEEB4EF99
:10211000A50194010E944511C60ED71EE81EF91EA6
:10212000F7FE06C081E0C81AD108E10880E8F80A85
:10213000C882D982EA82FB82C701B6019F77DF910C
:10214000CF91FF90EF90DF90CF90BF90AF909F9096
:102150008F9008958F929F92AF92BF92CF92DF920D
:10216000EF92FF9260910E0170910F01809110012A
:1021700090911101611571058105910521F464E2C9
:1021800079ED8BE597E02DE133EF41E050E00E94DF
:10219000181149015A019B01AC01A7EAB1E40E9460
:1021A00037116B017C01ACEEB4EFA50194010E94E4
:1021B0004511C60ED71EE81EF91EF7FE06C081E0C7
:1021C000C81AD108E10880E8F80AC0920E01D0923E
:1021D0000F01E0921001F0921101C701B6019F7743
:1021E000FF90EF90DF90CF90BF90AF909F908F9037
:1021F000089560930E0170930F01809310019093E6
:1022000011010895F999FECF92BD81BDF89A9927E1
:1022100080B50895262FF999FECF1FBA92BD81BDD2
:1022200020BD0FB6F894FA9AF99A0FBE0196089558
:10223000052E97FB1EF400940E942F1157FD07D026
:102240000E944A1107FC03D04EF40C942F115095B4
:102250004095309521953F4F4F4F5F4F0895909592
:102260008095709561957F4F8F4F9F4F08950E9485
:102270006C11A59F900DB49F900DA49F800D911D92
:1022800011240895B7FF0C9437110E943711821B57
:10229000930B0895A1E21A2EAA1BBB1BFD010DC0D2
:1022A000AA1FBB1FEE1FFF1FA217B307E407F50706
:1022B00020F0A21BB30BE40BF50B661F771F881FE2
:1022C000991F1A9469F760957095809590959B0178
:1022D000AC01BD01CF010895A29FB001B39FC00121
:1022E000A39F700D811D1124911DB29F700D811D42
:1022F0001124911D089597FB072E16F4009407D022
:1023000077FD09D00E948F1107FC05D03EF490950F
:1023100081959F4F0895709561957F4F0895AA1BF1
:10232000BB1B51E107C0AA1FBB1FA617B70710F0C0
:10233000A61BB70B881F991F5A95A9F780959095F2
:10234000BC01CD010895EE0FFF1F0590F491E02D23
:102350000994DC0101C06D9341505040E0F70895AD
:10236000AEE0B0E0E6EBF1E10C945F140D891E895C
:1023700086E08C831A8309838FEF9FE79E838D838A
:10238000AE01475E5F4F6F89788DCE0101960E9446
:10239000D3112F813885020F131FF80110822E965A
:1023A000E4E00C947B14ABE0B0E0E9EDF1E10C94D7
:1023B00051147C013B018A01FC0117821682838142
:1023C00081FFC8C1CE0101965C01F7019381F30141
:1023D00093FD859193FF81913F01882309F453C1B7
:1023E000853239F493FD859193FF81913F018532C8
:1023F00029F4B70190E00E94C313E7CF912C212C60
:10240000312CFFE1F31538F08B3211F190F480326A
:1024100009F1833229F137FC3CC020ED280F2A3026
:1024200050F536FE20C08AE0989E200D1124922E91
:1024300006C08D3291F0803371F7689430F8F30163
:1024400093FD859193FF81913F018111DACF21C0E6
:10245000689431F8689432F8F2CF689433F8EFCF8B
:10246000689434F8ECCFEAE02E9E200D1124222E41
:10247000689435F8E4CF8E3229F436FC04C16894B0
:1024800036F8DDCF8C3619F4689437F8D8CF883613
:10249000B1F2982F9F7D95549330E0F08336A1F1EF
:1024A0008337C1F1833509F063C02801F2E04F0E94
:1024B000511CF801C080D180692D70E036FC02C04B
:1024C0006FEF7FEFC6010E94AD134C01689437F89F
:1024D00082010AC00C5F1F4FFFE3F98388248394B5
:1024E000912C6501E89437F833FE2DC0522C8114ED
:1024F000910471F5552009F468CFB70180E290E0AE
:102500000E94C3135A94F6CFF801808189830E5F2D
:102510001F4FE4CF2801F2E04F0E511CF801C0809C
:10252000D180692D70E036FC02C06FEF7FEFC601ED
:102530000E94B8134C018201D5CFB70180E290E030
:102540000E94C3132A942814190409F0B0F7CECFBF
:10255000F60137FC859137FE81916F01B70190E05C
:102560000E94C31351105A94F1E08F1A9108BFCF03
:10257000843619F0893609F077C0F80137FE6BC050
:1025800060817181828193810C5F1F4FF32DFF76F3
:102590003F2E97FF09C090958095709561957F4F6C
:1025A0008F4F9F4F689437F82AE030E0A5010E94D2
:1025B000F313C82ECA188C2C432C36FE0CC0E8949A
:1025C00040F8C91440F434FE05C032FC03C0F32DBA
:1025D000FE7E4F2E892C44FE95C0FE01EC0DF11DB0
:1025E0008081803309F087C0242D297E422E842DDE
:1025F0008870582E43FC95C040FE8FC09C2C8214DE
:1026000018F42C0C922C981844FE91C0B70180E36A
:1026100090E00E94C31342FE09C088E790E041FEAB
:1026200002C088E590E0B7010E94C313C91408F402
:102630008AC0CA94D12C9FEFC91AD90ACA0CDB1CD4
:10264000F60182916F01B70190E00E94C313AC14B0
:10265000BD04B1F74FCF60817181072E000C880B4C
:10266000990B0E5F1F4F92CFD32CE894D4F82AE039
:1026700030E0853739F1232D297FD22E8F3601F1B5
:1026800048F48835A9F0F701868197812B96E2E11D
:102690000C946D14803749F08837A9F7D4FE02C036
:1026A0006894D2F820E130E00DC06894D4F8F6CFF9
:1026B00034FE03C0822F8660D82E20E132E002C0B3
:1026C00028E030E0F801D7FE0FC06081718182817F
:1026D00093810C5F1F4FA5010E94F313C82ECA18E7
:1026E0003D2CE89437F867CF6081718190E080E0FD
:1026F0000E5F1F4FF0CF42FC02C0839478CF8394CB
:10270000839475CF842D867809F471CFF6CFB70105
:1027100080E290E00E94C31383948214C0F3512C92
:1027200073CF522C5818821408F46ECFF8CF842D32
:10273000867809F47BCF8BE241FE80E247FC8DE294
:10274000B70190E071CFB70180E390E00E94C3131E
:102750009A946CCF8FEF9FEF99CFFC010590615059
:1027600070400110D8F7809590958E0F9F1F0895A7
:10277000FC016150704001900110D8F78095909550
:102780008E0F9F1F08950F931F93CF93DF93182FE2
:10279000092FEB018B8181FD09C01FEF0FEF812F06
:1027A000902FDF91CF911F910F91089582FF14C058
:1027B0002E813F818C819D81281739073CF4E88167
:1027C000F981CF0101969983888310838E819F813F
:1027D00001969F838E83E3CFE885F985812F099544
:1027E000892BA1F3DACFFA01AA27283051F1203141
:1027F00081F1E8946F936E7F6E5F7F4F8F4F9F4F95
:10280000AF4FB1E03ED0B4E03CD0670F781F891FD6
:102810009A1FA11D680F791F8A1F911DA11D6A0FA4
:10282000711D811D911DA11D20D009F468943F9157
:102830002AE0269F11243019305D3193DEF6CF0156
:102840000895462F4770405D4193B3E00FD0C9F71C
:10285000F6CF462F4F70405D4A3318F0495D31FD89
:102860004052419302D0A9F7EACFB4E0A6959795DC
:10287000879577956795BA95C9F7009761057105B2
:1028800008959B01AC010A2E0694579547953795FC
:102890002795BA95C9F7620F731F841F951FA01D56
:1028A00008952F923F924F925F926F927F928F92F4
:1028B0009F92AF92BF92CF92DF92EF92FF920F93CF
:1028C0001F93CF93DF93CDB7DEB7CA1BDB0B0FB6D9
:1028D000F894DEBF0FBECDBF09942A883988488896
:1028E0005F846E847D848C849B84AA84B984C8842C
:1028F000DF80EE80FD800C811B81AA81B981CE0F23
:10290000D11D0FB6F894DEBF0FBECDBFED01089507
:04291000F894FFCF69
:102914001001FFFFFFFF00E10000000000000100C4
:1029240000002B2D7800C180810000000000000011
:10293400FA0392051B04100461041F043D04000003
:10294400000053060D05240723076E4261636B00E4
:10295400204261636B00616E7377657220666972F1
:1029640073742064696769740025642025632025D5
:022974006400FD
:00000001FF
